{
  "_format": "hh-sol-artifact-1",
  "contractName": "MockUSDC",
  "sourceName": "contracts/mockUSDC.sol",
  "abi": [
    {
      "inputs": [],
      "stateMutability": "nonpayable",
      "type": "constructor"
    },
    {
      "inputs": [],
      "name": "InvalidShortString",
      "type": "error"
    },
    {
      "inputs": [
        {
          "internalType": "string",
          "name": "str",
          "type": "string"
        }
      ],
      "name": "StringTooLong",
      "type": "error"
    },
    {
      "anonymous": false,
      "inputs": [
        {
          "indexed": true,
          "internalType": "address",
          "name": "owner",
          "type": "address"
        },
        {
          "indexed": true,
          "internalType": "address",
          "name": "spender",
          "type": "address"
        },
        {
          "indexed": false,
          "internalType": "uint256",
          "name": "value",
          "type": "uint256"
        }
      ],
      "name": "Approval",
      "type": "event"
    },
    {
      "anonymous": false,
      "inputs": [],
      "name": "EIP712DomainChanged",
      "type": "event"
    },
    {
      "anonymous": false,
      "inputs": [
        {
          "indexed": true,
          "internalType": "address",
          "name": "previousOwner",
          "type": "address"
        },
        {
          "indexed": true,
          "internalType": "address",
          "name": "newOwner",
          "type": "address"
        }
      ],
      "name": "OwnershipTransferred",
      "type": "event"
    },
    {
      "anonymous": false,
      "inputs": [
        {
          "indexed": true,
          "internalType": "address",
          "name": "from",
          "type": "address"
        },
        {
          "indexed": true,
          "internalType": "address",
          "name": "to",
          "type": "address"
        },
        {
          "indexed": false,
          "internalType": "uint256",
          "name": "value",
          "type": "uint256"
        }
      ],
      "name": "Transfer",
      "type": "event"
    },
    {
      "inputs": [],
      "name": "DOMAIN_SEPARATOR",
      "outputs": [
        {
          "internalType": "bytes32",
          "name": "",
          "type": "bytes32"
        }
      ],
      "stateMutability": "view",
      "type": "function"
    },
    {
      "inputs": [
        {
          "internalType": "address",
          "name": "owner",
          "type": "address"
        },
        {
          "internalType": "address",
          "name": "spender",
          "type": "address"
        }
      ],
      "name": "allowance",
      "outputs": [
        {
          "internalType": "uint256",
          "name": "",
          "type": "uint256"
        }
      ],
      "stateMutability": "view",
      "type": "function"
    },
    {
      "inputs": [
        {
          "internalType": "address",
          "name": "spender",
          "type": "address"
        },
        {
          "internalType": "uint256",
          "name": "amount",
          "type": "uint256"
        }
      ],
      "name": "approve",
      "outputs": [
        {
          "internalType": "bool",
          "name": "",
          "type": "bool"
        }
      ],
      "stateMutability": "nonpayable",
      "type": "function"
    },
    {
      "inputs": [
        {
          "internalType": "address",
          "name": "account",
          "type": "address"
        }
      ],
      "name": "balanceOf",
      "outputs": [
        {
          "internalType": "uint256",
          "name": "",
          "type": "uint256"
        }
      ],
      "stateMutability": "view",
      "type": "function"
    },
    {
      "inputs": [],
      "name": "decimals",
      "outputs": [
        {
          "internalType": "uint8",
          "name": "",
          "type": "uint8"
        }
      ],
      "stateMutability": "pure",
      "type": "function"
    },
    {
      "inputs": [
        {
          "internalType": "address",
          "name": "spender",
          "type": "address"
        },
        {
          "internalType": "uint256",
          "name": "subtractedValue",
          "type": "uint256"
        }
      ],
      "name": "decreaseAllowance",
      "outputs": [
        {
          "internalType": "bool",
          "name": "",
          "type": "bool"
        }
      ],
      "stateMutability": "nonpayable",
      "type": "function"
    },
    {
      "inputs": [],
      "name": "eip712Domain",
      "outputs": [
        {
          "internalType": "bytes1",
          "name": "fields",
          "type": "bytes1"
        },
        {
          "internalType": "string",
          "name": "name",
          "type": "string"
        },
        {
          "internalType": "string",
          "name": "version",
          "type": "string"
        },
        {
          "internalType": "uint256",
          "name": "chainId",
          "type": "uint256"
        },
        {
          "internalType": "address",
          "name": "verifyingContract",
          "type": "address"
        },
        {
          "internalType": "bytes32",
          "name": "salt",
          "type": "bytes32"
        },
        {
          "internalType": "uint256[]",
          "name": "extensions",
          "type": "uint256[]"
        }
      ],
      "stateMutability": "view",
      "type": "function"
    },
    {
      "inputs": [
        {
          "internalType": "address",
          "name": "spender",
          "type": "address"
        },
        {
          "internalType": "uint256",
          "name": "addedValue",
          "type": "uint256"
        }
      ],
      "name": "increaseAllowance",
      "outputs": [
        {
          "internalType": "bool",
          "name": "",
          "type": "bool"
        }
      ],
      "stateMutability": "nonpayable",
      "type": "function"
    },
    {
      "inputs": [
        {
          "internalType": "address",
          "name": "to",
          "type": "address"
        },
        {
          "internalType": "uint256",
          "name": "amount",
          "type": "uint256"
        }
      ],
      "name": "mint",
      "outputs": [],
      "stateMutability": "nonpayable",
      "type": "function"
    },
    {
      "inputs": [],
      "name": "name",
      "outputs": [
        {
          "internalType": "string",
          "name": "",
          "type": "string"
        }
      ],
      "stateMutability": "view",
      "type": "function"
    },
    {
      "inputs": [
        {
          "internalType": "address",
          "name": "owner",
          "type": "address"
        }
      ],
      "name": "nonces",
      "outputs": [
        {
          "internalType": "uint256",
          "name": "",
          "type": "uint256"
        }
      ],
      "stateMutability": "view",
      "type": "function"
    },
    {
      "inputs": [],
      "name": "owner",
      "outputs": [
        {
          "internalType": "address",
          "name": "",
          "type": "address"
        }
      ],
      "stateMutability": "view",
      "type": "function"
    },
    {
      "inputs": [
        {
          "internalType": "address",
          "name": "owner",
          "type": "address"
        },
        {
          "internalType": "address",
          "name": "spender",
          "type": "address"
        },
        {
          "internalType": "uint256",
          "name": "value",
          "type": "uint256"
        },
        {
          "internalType": "uint256",
          "name": "deadline",
          "type": "uint256"
        },
        {
          "internalType": "uint8",
          "name": "v",
          "type": "uint8"
        },
        {
          "internalType": "bytes32",
          "name": "r",
          "type": "bytes32"
        },
        {
          "internalType": "bytes32",
          "name": "s",
          "type": "bytes32"
        }
      ],
      "name": "permit",
      "outputs": [],
      "stateMutability": "nonpayable",
      "type": "function"
    },
    {
      "inputs": [],
      "name": "renounceOwnership",
      "outputs": [],
      "stateMutability": "nonpayable",
      "type": "function"
    },
    {
      "inputs": [],
      "name": "symbol",
      "outputs": [
        {
          "internalType": "string",
          "name": "",
          "type": "string"
        }
      ],
      "stateMutability": "view",
      "type": "function"
    },
    {
      "inputs": [
        {
          "internalType": "uint256",
          "name": "",
          "type": "uint256"
        }
      ],
      "name": "test_accounts",
      "outputs": [
        {
          "internalType": "address",
          "name": "",
          "type": "address"
        }
      ],
      "stateMutability": "view",
      "type": "function"
    },
    {
      "inputs": [],
      "name": "totalSupply",
      "outputs": [
        {
          "internalType": "uint256",
          "name": "",
          "type": "uint256"
        }
      ],
      "stateMutability": "view",
      "type": "function"
    },
    {
      "inputs": [
        {
          "internalType": "address",
          "name": "to",
          "type": "address"
        },
        {
          "internalType": "uint256",
          "name": "amount",
          "type": "uint256"
        }
      ],
      "name": "transfer",
      "outputs": [
        {
          "internalType": "bool",
          "name": "",
          "type": "bool"
        }
      ],
      "stateMutability": "nonpayable",
      "type": "function"
    },
    {
      "inputs": [
        {
          "internalType": "address",
          "name": "from",
          "type": "address"
        },
        {
          "internalType": "address",
          "name": "to",
          "type": "address"
        },
        {
          "internalType": "uint256",
          "name": "amount",
          "type": "uint256"
        }
      ],
      "name": "transferFrom",
      "outputs": [
        {
          "internalType": "bool",
          "name": "",
          "type": "bool"
        }
      ],
      "stateMutability": "nonpayable",
      "type": "function"
    },
    {
      "inputs": [
        {
          "internalType": "address",
          "name": "newOwner",
          "type": "address"
        }
      ],
      "name": "transferOwnership",
      "outputs": [],
      "stateMutability": "nonpayable",
      "type": "function"
    }
  ],
  "bytecode": "0x610160604052346105ff57604051610018604082610604565b6008815260208101674d6f636b5553444360c01b81526040519061003d604083610604565b60088252674d6f636b5553444360c01b602083015260405192610061604085610604565b60058452644d5553444360d81b602085015260405193610082604086610604565b60018552603160f81b60208601908152845190946001600160401b0382116104305760035490600182811c921680156105f5575b60208310146105135781601f8493116105a6575b50602090601f831160011461053e57600092610533575b50508160011b916000199060031b1c1916176003555b8051906001600160401b0382116104305760045490600182811c92168015610529575b60208310146105135781601f8493116104b9575b50602090601f831160011461045157600092610446575b50508160011b916000199060031b1c1916176004555b61016433610a3c565b61016d81610706565b6101205261017a846108a9565b61014052519020918260e05251902080610100524660a0526040519060208201927f8b73c3c69bb8fe3d512ecc4cf759cc79239f7b179b0ffacaa9a75d522b39400f8452604083015260608201524660808201523060a082015260a081526101e360c082610604565b5190206080523060c05260405161014081016001600160401b038111828210176104305760405273f39fd6e51aad88f6f4ce6ab8827279cfffb92266815273a0ee7a142d267c1f36714e4a8f75612f20a7972060208201527370997970c51812dc3a010c7d01b50e0d17dc79c86040820152733c44cdddb6a900fa2b585dd299e03d12fa4293bc60608201527390f79bf6eb2c4f870365e785982e1f101e93b9066080820152738626f6940e2eb28930efb4cef49b2d1f2c9c119960a08201527315d34aaf54267db7d7c367839aaf71a00a2c6a6560c0820152739965507d1a55bcc2695c58ba16fb37d819b0a4dc60e082015273976ea74026e726554db657fa54763abd0c3a0aa96101008201527314dc79964da2c08b23698b3d3cc7ca32193d995561012082015260005b600a8110610412576103213361063e565b610329610a85565b33156103be5761033833610a3c565b60005b600a81101561036d57600a81015460019190610367906001600160a01b0316610362610a85565b61063e565b0161033b565b6040516112919081610ade823960805181610edc015260a05181610f99015260c05181610ead015260e05181610f2b01526101005181610f51015261012051816105ab015261014051816105d40152f35b60405162461bcd60e51b815260206004820152602660248201527f4f776e61626c653a206e6577206f776e657220697320746865207a65726f206160448201526564647265737360d01b6064820152608490fd5b81516001600160a01b0316600a820155602090910190600101610310565b634e487b7160e01b600052604160045260246000fd5b015190503880610145565b600460009081528281209350601f198516905b8181106104a15750908460019594939210610488575b505050811b0160045561015b565b015160001960f88460031b161c1916905538808061047a565b92936020600181928786015181550195019301610464565b6004600052610503907f8a35acfbc15ff81a39ae7d344fd709f28e8600b4aa8c65c6b64bfe7fe36bd19b601f850160051c81019160208610610509575b601f0160051c0190610627565b3861012e565b90915081906104f6565b634e487b7160e01b600052602260045260246000fd5b91607f169161011a565b0151905038806100e1565b600360009081528281209350601f198516905b81811061058e5750908460019594939210610575575b505050811b016003556100f7565b015160001960f88460031b161c19169055388080610567565b92936020600181928786015181550195019301610551565b60036000526105ef907fc2575a0e9e593c00f959f8c92f12db2869c3395a3b0502d05e2516446f71f85b601f850160051c8101916020861061050957601f0160051c0190610627565b386100ca565b91607f16916100b6565b600080fd5b601f909101601f19168101906001600160401b0382119082101761043057604052565b818110610632575050565b60008155600101610627565b6001600160a01b031680156106c157600254633b9aca0081018091116106ab576002558060005260006020526040600020633b9aca00815401905560007fddf252ad1be2c89b69c2b068fc378daa952ba7f163c4a11628f55a4df523b3ef6020604051633b9aca008152a3565b634e487b7160e01b600052601160045260246000fd5b60405162461bcd60e51b815260206004820152601f60248201527f45524332303a206d696e7420746f20746865207a65726f2061646472657373006044820152606490fd5b9081516020811060001461079e575090601f815111610742576020815191015160208210610732571790565b6000198260200360031b1b161790565b6040519063305a27a960e01b8252602060048301528181519182602483015260005b8381106107865750508160006044809484010152601f80199101168101030190fd5b60208282018101516044878401015285935001610764565b6001600160401b03811161043057600654600181811c9116801561089f575b602082101461051357601f8111610874575b50602092601f821160011461080f5792819293600092610804575b50508160011b916000199060031b1c19161760065560ff90565b0151905038806107ea565b601f198216936006600052806000209160005b86811061085c5750836001959610610843575b505050811b0160065560ff90565b015160001960f88460031b161c19169055388080610835565b91926020600181928685015181550194019201610822565b610899906006600052601f6020600020910160051c810190601f840160051c01610627565b386107cf565b90607f16906107bd565b90815160208110600014610931575090601f8151116108d5576020815191015160208210610732571790565b6040519063305a27a960e01b8252602060048301528181519182602483015260005b8381106109195750508160006044809484010152601f80199101168101030190fd5b602082820181015160448784010152859350016108f7565b6001600160401b03811161043057600754600181811c91168015610a32575b602082101461051357601f8111610a07575b50602092601f82116001146109a25792819293600092610997575b50508160011b916000199060031b1c19161760075560ff90565b01519050388061097d565b601f198216936007600052806000209160005b8681106109ef57508360019596106109d6575b505050811b0160075560ff90565b015160001960f88460031b161c191690553880806109c8565b919260206001819286850151815501940192016109b5565b610a2c906007600052601f6020600020910160051c810190601f840160051c01610627565b38610962565b90607f1690610950565b600580546001600160a01b039283166001600160a01b0319821681179092559091167f8be0079c531659141344cd1fd0a4f28419497f9722a3daafe3b4186f6b6457e0600080a3565b6005546001600160a01b03163303610a9957565b606460405162461bcd60e51b815260206004820152602060248201527f4f776e61626c653a2063616c6c6572206973206e6f7420746865206f776e65726044820152fdfe608080604052600436101561001357600080fd5b60003560e01c90816306fdde03146109f257508063095ea7b3146109cc57806318160ddd146109ae57806323b872dd146108e65780632b75970e146108b1578063313ce567146108955780633644e51514610872578063395093511461081f57806340c10f191461075757806370a082311461071d578063715018a6146106c95780637ecebe001461068f57806384b0196e146105925780638da5cb5b1461056b57806395d89b4114610486578063a457c2d7146103de578063a9059cbb146103ad578063d505accf14610218578063dd62ed3e146101c05763f2fde38b146100fb57600080fd5b346101bb5760203660031901126101bb576001600160a01b0361011c610ad8565b610124610fbf565b168015610167576001600160a01b03600554828219821617600555167f8be0079c531659141344cd1fd0a4f28419497f9722a3daafe3b4186f6b6457e0600080a3005b60405162461bcd60e51b815260206004820152602660248201527f4f776e61626c653a206e6577206f776e657220697320746865207a65726f206160448201526564647265737360d01b6064820152608490fd5b600080fd5b346101bb5760403660031901126101bb576101d9610ad8565b6001600160a01b036101e9610aee565b911660005260016020526001600160a01b03604060002091166000526020526020604060002054604051908152f35b346101bb5760e03660031901126101bb57610231610ad8565b610239610aee565b6044359060643560843560ff811681036101bb578142116103685761031261030a6001600160a01b0392838816948560005260086020526040600020908154916001830190556040519060208201927f6e71edae12b1b97f4d1f60370fef10105fa2faae0126114a169c64845d6126c98452886040840152878a1660608401528a608084015260a083015260c082015260c081526102d860e082610bc1565b5190206102e3610ea3565b906040519161190160f01b83526002830152602282015260c43591604260a43592206110b5565b919091611141565b16036103235761032192610c1c565b005b60405162461bcd60e51b815260206004820152601e60248201527f45524332305065726d69743a20696e76616c6964207369676e617475726500006044820152606490fd5b60405162461bcd60e51b815260206004820152601d60248201527f45524332305065726d69743a206578706972656420646561646c696e650000006044820152606490fd5b346101bb5760403660031901126101bb576103d36103c9610ad8565b6024359033610d24565b602060405160018152f35b346101bb5760403660031901126101bb576103f7610ad8565b6024359033600052600160205260406000206001600160a01b03821660005260205260406000205491808310610433576103d392039033610c1c565b60405162461bcd60e51b815260206004820152602560248201527f45524332303a2064656372656173656420616c6c6f77616e63652062656c6f77604482015264207a65726f60d81b6064820152608490fd5b346101bb5760003660031901126101bb5760405160006004546104a881610b04565b808452906001811690811561054757506001146104e8575b6104e4836104d081850382610bc1565b604051918291602083526020830190610a97565b0390f35b600460009081527f8a35acfbc15ff81a39ae7d344fd709f28e8600b4aa8c65c6b64bfe7fe36bd19b939250905b80821061052d575090915081016020016104d06104c0565b919260018160209254838588010152019101909291610515565b60ff191660208086019190915291151560051b840190910191506104d090506104c0565b346101bb5760003660031901126101bb5760206001600160a01b0360055416604051908152f35b346101bb5760003660031901126101bb576106316105cf7f0000000000000000000000000000000000000000000000000000000000000000611017565b6105f87f000000000000000000000000000000000000000000000000000000000000000061107e565b602061063f6040519261060b8385610bc1565b600084526000368137604051958695600f60f81b875260e08588015260e0870190610a97565b908582036040870152610a97565b466060850152306080850152600060a085015283810360c085015281808451928381520193019160005b82811061067857505050500390f35b835185528695509381019392810192600101610669565b346101bb5760203660031901126101bb576001600160a01b036106b0610ad8565b1660005260086020526020604060002054604051908152f35b346101bb5760003660031901126101bb576106e2610fbf565b60006001600160a01b0360055481198116600555167f8be0079c531659141344cd1fd0a4f28419497f9722a3daafe3b4186f6b6457e08280a3005b346101bb5760203660031901126101bb576001600160a01b0361073e610ad8565b1660005260006020526020604060002054604051908152f35b346101bb5760403660031901126101bb57610770610ad8565b6001600160a01b0360243591610784610fbf565b169081156107da577fddf252ad1be2c89b69c2b068fc378daa952ba7f163c4a11628f55a4df523b3ef6020826107be600094600254610bf9565b60025584845283825260408420818154019055604051908152a3005b60405162461bcd60e51b815260206004820152601f60248201527f45524332303a206d696e7420746f20746865207a65726f2061646472657373006044820152606490fd5b346101bb5760403660031901126101bb576103d361083b610ad8565b33600052600160205260406000206001600160a01b03821660005260205261086b60406000206024359054610bf9565b9033610c1c565b346101bb5760003660031901126101bb57602061088d610ea3565b604051908152f35b346101bb5760003660031901126101bb57602060405160068152f35b346101bb5760203660031901126101bb57600435600a8110156101bb576001600160a01b03602091600a015416604051908152f35b346101bb5760603660031901126101bb576108ff610ad8565b610907610aee565b604435906001600160a01b038316600052600160205260406000206001600160a01b03331660005260205260406000205492600019840361094d575b6103d39350610d24565b82841061096957610964836103d395033383610c1c565b610943565b60405162461bcd60e51b815260206004820152601d60248201527f45524332303a20696e73756666696369656e7420616c6c6f77616e63650000006044820152606490fd5b346101bb5760003660031901126101bb576020600254604051908152f35b346101bb5760403660031901126101bb576103d36109e8610ad8565b6024359033610c1c565b346101bb5760003660031901126101bb576000600354610a1181610b04565b80845290600181169081156105475750600114610a38576104e4836104d081850382610bc1565b600360009081527fc2575a0e9e593c00f959f8c92f12db2869c3395a3b0502d05e2516446f71f85b939250905b808210610a7d575090915081016020016104d06104c0565b919260018160209254838588010152019101909291610a65565b919082519283825260005b848110610ac3575050826000602080949584010152601f8019910116010190565b80602080928401015182828601015201610aa2565b600435906001600160a01b03821682036101bb57565b602435906001600160a01b03821682036101bb57565b90600182811c92168015610b34575b6020831014610b1e57565b634e487b7160e01b600052602260045260246000fd5b91607f1691610b13565b60009291815491610b4e83610b04565b8083529260018116908115610ba45750600114610b6a57505050565b60009081526020812093945091925b838310610b8a575060209250010190565b600181602092949394548385870101520191019190610b79565b915050602093945060ff929192191683830152151560051b010190565b90601f8019910116810190811067ffffffffffffffff821117610be357604052565b634e487b7160e01b600052604160045260246000fd5b91908201809211610c0657565b634e487b7160e01b600052601160045260246000fd5b6001600160a01b0316908115610cd3576001600160a01b0316918215610c835760207f8c5be1e5ebec7d5bd14f71427d1e84f3dd0314c0f7b2291e5b200ac8c7c3b925918360005260018252604060002085600052825280604060002055604051908152a3565b60405162461bcd60e51b815260206004820152602260248201527f45524332303a20617070726f766520746f20746865207a65726f206164647265604482015261737360f01b6064820152608490fd5b60405162461bcd60e51b8152602060048201526024808201527f45524332303a20617070726f76652066726f6d20746865207a65726f206164646044820152637265737360e01b6064820152608490fd5b6001600160a01b0316908115610e50576001600160a01b0316918215610dff57816000526000602052604060002054818110610dab57817fddf252ad1be2c89b69c2b068fc378daa952ba7f163c4a11628f55a4df523b3ef9260209285600052600084520360406000205584600052600082526040600020818154019055604051908152a3565b60405162461bcd60e51b815260206004820152602660248201527f45524332303a207472616e7366657220616d6f756e7420657863656564732062604482015265616c616e636560d01b6064820152608490fd5b60405162461bcd60e51b815260206004820152602360248201527f45524332303a207472616e7366657220746f20746865207a65726f206164647260448201526265737360e81b6064820152608490fd5b60405162461bcd60e51b815260206004820152602560248201527f45524332303a207472616e736665722066726f6d20746865207a65726f206164604482015264647265737360d81b6064820152608490fd5b6001600160a01b037f000000000000000000000000000000000000000000000000000000000000000016301480610f96575b15610efe577f000000000000000000000000000000000000000000000000000000000000000090565b60405160208101907f8b73c3c69bb8fe3d512ecc4cf759cc79239f7b179b0ffacaa9a75d522b39400f82527f000000000000000000000000000000000000000000000000000000000000000060408201527f000000000000000000000000000000000000000000000000000000000000000060608201524660808201523060a082015260a08152610f9060c082610bc1565b51902090565b507f00000000000000000000000000000000000000000000000000000000000000004614610ed5565b6001600160a01b03600554163303610fd357565b606460405162461bcd60e51b815260206004820152602060248201527f4f776e61626c653a2063616c6c6572206973206e6f7420746865206f776e65726044820152fd5b60ff81146110615760ff811690601f821161105057604080519261103b8285610bc1565b6020808552840191601f190136833783525290565b632cd44ac360e21b60005260046000fd5b5060405161107b81611074816006610b3e565b0382610bc1565b90565b60ff81146110a25760ff811690601f821161105057604080519261103b8285610bc1565b5060405161107b81611074816007610b3e565b7f7fffffffffffffffffffffffffffffff5d576e7357a4501ddfe92f46681b20a084116111355760209360009360ff60809460405194855216868401526040830152606082015282805260015afa15611129576000516001600160a01b038116156111205790600090565b50600090600190565b6040513d6000823e3d90fd5b50505050600090600390565b600581101561124557806111525750565b6001810361119f5760405162461bcd60e51b815260206004820152601860248201527f45434453413a20696e76616c6964207369676e617475726500000000000000006044820152606490fd5b600281036111ec5760405162461bcd60e51b815260206004820152601f60248201527f45434453413a20696e76616c6964207369676e6174757265206c656e677468006044820152606490fd5b6003146111f557565b60405162461bcd60e51b815260206004820152602260248201527f45434453413a20696e76616c6964207369676e6174757265202773272076616c604482015261756560f01b6064820152608490fd5b634e487b7160e01b600052602160045260246000fdfea26469706673582212204e3099099fe6775e6c482ac314072988a221b75f6544a8be94e081548c69752264736f6c634300081c0033",
  "linkReferences": {},
  "deployedLinkReferences": {}
}